{
  "contractName": "DocumentStorage",
  "abi": [
    {
      "inputs": [],
      "stateMutability": "nonpayable",
      "type": "constructor"
    },
    {
      "anonymous": false,
      "inputs": [
        {
          "indexed": true,
          "internalType": "address",
          "name": "uploader",
          "type": "address"
        },
        {
          "indexed": false,
          "internalType": "uint256",
          "name": "uniqueId",
          "type": "uint256"
        },
        {
          "indexed": false,
          "internalType": "string",
          "name": "name",
          "type": "string"
        },
        {
          "indexed": false,
          "internalType": "string",
          "name": "cid",
          "type": "string"
        }
      ],
      "name": "DocumentUploaded",
      "type": "event"
    },
    {
      "inputs": [
        {
          "internalType": "string",
          "name": "_name",
          "type": "string"
        },
        {
          "internalType": "string",
          "name": "_cid",
          "type": "string"
        }
      ],
      "name": "uploadDocument",
      "outputs": [],
      "stateMutability": "nonpayable",
      "type": "function"
    },
    {
      "inputs": [],
      "name": "getDocumentsByUser",
      "outputs": [
        {
          "components": [
            {
              "internalType": "uint256",
              "name": "uniqueId",
              "type": "uint256"
            },
            {
              "internalType": "string",
              "name": "name",
              "type": "string"
            },
            {
              "internalType": "string",
              "name": "cid",
              "type": "string"
            },
            {
              "internalType": "address",
              "name": "uploader",
              "type": "address"
            },
            {
              "internalType": "address[]",
              "name": "permissions",
              "type": "address[]"
            }
          ],
          "internalType": "struct DocumentStorage.Document[]",
          "name": "",
          "type": "tuple[]"
        }
      ],
      "stateMutability": "view",
      "type": "function",
      "constant": true
    },
    {
      "inputs": [
        {
          "internalType": "uint256",
          "name": "_uniqueId",
          "type": "uint256"
        }
      ],
      "name": "getCidByUniqueId",
      "outputs": [
        {
          "internalType": "string",
          "name": "",
          "type": "string"
        }
      ],
      "stateMutability": "view",
      "type": "function",
      "constant": true
    },
    {
      "inputs": [
        {
          "internalType": "uint256",
          "name": "_uniqueId",
          "type": "uint256"
        },
        {
          "internalType": "address",
          "name": "_user",
          "type": "address"
        }
      ],
      "name": "hasPermission",
      "outputs": [
        {
          "internalType": "bool",
          "name": "",
          "type": "bool"
        }
      ],
      "stateMutability": "view",
      "type": "function",
      "constant": true
    },
    {
      "inputs": [
        {
          "internalType": "uint256",
          "name": "_uniqueId",
          "type": "uint256"
        },
        {
          "internalType": "address",
          "name": "_user",
          "type": "address"
        }
      ],
      "name": "grantPermission",
      "outputs": [],
      "stateMutability": "nonpayable",
      "type": "function"
    },
    {
      "inputs": [
        {
          "internalType": "uint256",
          "name": "_uniqueId",
          "type": "uint256"
        },
        {
          "internalType": "address",
          "name": "_user",
          "type": "address"
        }
      ],
      "name": "revokePermission",
      "outputs": [],
      "stateMutability": "nonpayable",
      "type": "function"
    },
    {
      "inputs": [
        {
          "internalType": "uint256",
          "name": "_uniqueId",
          "type": "uint256"
        }
      ],
      "name": "getPermissions",
      "outputs": [
        {
          "internalType": "address[]",
          "name": "",
          "type": "address[]"
        }
      ],
      "stateMutability": "view",
      "type": "function",
      "constant": true
    }
  ],
  "bytecode": "0x608060405234801561001057600080fd5b506001600281905550611c7f806100286000396000f3fe608060405234801561001057600080fd5b506004361061007d5760003560e01c80634464fe331161005b5780634464fe33146100ea5780634cf1585814610106578063ac09f6b814610136578063cbe5ee2f146101665761007d565b80632cdb559b146100825780633125d43c1461009e5780633686824d146100ba575b600080fd5b61009c60048036038101906100979190610f6e565b610184565b005b6100b860048036038101906100b39190610f6e565b6102e1565b005b6100d460048036038101906100cf9190610fae565b610574565b6040516100e1919061106b565b60405180910390f35b61010460048036038101906100ff91906111c2565b610669565b005b610120600480360381019061011b9190610f6e565b610972565b60405161012d9190611255565b60405180910390f35b610150600480360381019061014b9190610fae565b610a81565b60405161015d919061132e565b60405180910390f35b61016e610b72565b60405161017b919061155e565b60405180910390f35b60006001600084815260200190815260200160002090503373ffffffffffffffffffffffffffffffffffffffff168160030160009054906101000a900473ffffffffffffffffffffffffffffffffffffffff1673ffffffffffffffffffffffffffffffffffffffff161461022d576040517f08c379a0000000000000000000000000000000000000000000000000000000008152600401610224906115f2565b60405180910390fd5b6102378383610972565b15610277576040517f08c379a000000000000000000000000000000000000000000000000000000000815260040161026e9061165e565b60405180910390fd5b80600401829080600181540180825580915050600190039060005260206000200160009091909190916101000a81548173ffffffffffffffffffffffffffffffffffffffff021916908373ffffffffffffffffffffffffffffffffffffffff160217905550505050565b60006001600084815260200190815260200160002090503373ffffffffffffffffffffffffffffffffffffffff168160030160009054906101000a900473ffffffffffffffffffffffffffffffffffffffff1673ffffffffffffffffffffffffffffffffffffffff161461038a576040517f08c379a0000000000000000000000000000000000000000000000000000000008152600401610381906116f0565b60405180910390fd5b6103948383610972565b6103d3576040517f08c379a00000000000000000000000000000000000000000000000000000000081526004016103ca9061175c565b60405180910390fd5b60005b816004018054905081101561056d578273ffffffffffffffffffffffffffffffffffffffff168260040182815481106104125761041161177c565b5b9060005260206000200160009054906101000a900473ffffffffffffffffffffffffffffffffffffffff1673ffffffffffffffffffffffffffffffffffffffff160361055a57816004016001836004018054905061047091906117da565b815481106104815761048061177c565b5b9060005260206000200160009054906101000a900473ffffffffffffffffffffffffffffffffffffffff168260040182815481106104c2576104c161177c565b5b9060005260206000200160006101000a81548173ffffffffffffffffffffffffffffffffffffffff021916908373ffffffffffffffffffffffffffffffffffffffff1602179055508160040180548061051e5761051d61180e565b5b6001900381819060005260206000200160006101000a81549073ffffffffffffffffffffffffffffffffffffffff021916905590555050610570565b80806105659061183d565b9150506103d6565b50505b5050565b6060600060016000848152602001908152602001600020905060008160000154036105d4576040517f08c379a00000000000000000000000000000000000000000000000000000000081526004016105cb906118f7565b60405180910390fd5b8060020180546105e390611946565b80601f016020809104026020016040519081016040528092919081815260200182805461060f90611946565b801561065c5780601f106106315761010080835404028352916020019161065c565b820191906000526020600020905b81548152906001019060200180831161063f57829003601f168201915b5050505050915050919050565b6000600167ffffffffffffffff81111561068657610685611097565b5b6040519080825280602002602001820160405280156106b45781602001602082028036833780820191505090505b50905033816000815181106106cc576106cb61177c565b5b602002602001019073ffffffffffffffffffffffffffffffffffffffff16908173ffffffffffffffffffffffffffffffffffffffff168152505060006040518060a0016040528060025481526020018581526020018481526020013373ffffffffffffffffffffffffffffffffffffffff1681526020018381525090506000803373ffffffffffffffffffffffffffffffffffffffff1673ffffffffffffffffffffffffffffffffffffffff1681526020019081526020016000208190806001815401808255809150506001900390600052602060002090600502016000909190919091506000820151816000015560208201518160010190816107d09190611b23565b5060408201518160020190816107e69190611b23565b5060608201518160030160006101000a81548173ffffffffffffffffffffffffffffffffffffffff021916908373ffffffffffffffffffffffffffffffffffffffff160217905550608082015181600401908051906020019061084a929190610e1f565b505050806001600060025481526020019081526020016000206000820151816000015560208201518160010190816108829190611b23565b5060408201518160020190816108989190611b23565b5060608201518160030160006101000a81548173ffffffffffffffffffffffffffffffffffffffff021916908373ffffffffffffffffffffffffffffffffffffffff16021790555060808201518160040190805190602001906108fc929190610e1f565b509050503373ffffffffffffffffffffffffffffffffffffffff167fa9087cdc21e5c66543fde424b69d7d1d27a930228e18086258e84d24c5d2c314600254868660405161094c93929190611c04565b60405180910390a2600260008154809291906109679061183d565b919050555050505050565b60008060016000858152602001908152602001600020905060008160000154036109d1576040517f08c379a00000000000000000000000000000000000000000000000000000000081526004016109c8906118f7565b60405180910390fd5b60005b8160040180549050811015610a74578373ffffffffffffffffffffffffffffffffffffffff16826004018281548110610a1057610a0f61177c565b5b9060005260206000200160009054906101000a900473ffffffffffffffffffffffffffffffffffffffff1673ffffffffffffffffffffffffffffffffffffffff1603610a6157600192505050610a7b565b8080610a6c9061183d565b9150506109d4565b5060009150505b92915050565b606060006001600084815260200190815260200160002090506000816000015403610ae1576040517f08c379a0000000000000000000000000000000000000000000000000000000008152600401610ad8906118f7565b60405180910390fd5b80600401805480602002602001604051908101604052809291908181526020018280548015610b6557602002820191906000526020600020905b8160009054906101000a900473ffffffffffffffffffffffffffffffffffffffff1673ffffffffffffffffffffffffffffffffffffffff1681526020019060010190808311610b1b575b5050505050915050919050565b60606000803373ffffffffffffffffffffffffffffffffffffffff1673ffffffffffffffffffffffffffffffffffffffff168152602001908152602001600020805480602002602001604051908101604052809291908181526020016000905b82821015610e1657838290600052602060002090600502016040518060a001604052908160008201548152602001600182018054610c0f90611946565b80601f0160208091040260200160405190810160405280929190818152602001828054610c3b90611946565b8015610c885780601f10610c5d57610100808354040283529160200191610c88565b820191906000526020600020905b815481529060010190602001808311610c6b57829003601f168201915b50505050508152602001600282018054610ca190611946565b80601f0160208091040260200160405190810160405280929190818152602001828054610ccd90611946565b8015610d1a5780601f10610cef57610100808354040283529160200191610d1a565b820191906000526020600020905b815481529060010190602001808311610cfd57829003601f168201915b505050505081526020016003820160009054906101000a900473ffffffffffffffffffffffffffffffffffffffff1673ffffffffffffffffffffffffffffffffffffffff1673ffffffffffffffffffffffffffffffffffffffff16815260200160048201805480602002602001604051908101604052809291908181526020018280548015610dfe57602002820191906000526020600020905b8160009054906101000a900473ffffffffffffffffffffffffffffffffffffffff1673ffffffffffffffffffffffffffffffffffffffff1681526020019060010190808311610db4575b50505050508152505081526020019060010190610bd2565b50505050905090565b828054828255906000526020600020908101928215610e98579160200282015b82811115610e975782518260006101000a81548173ffffffffffffffffffffffffffffffffffffffff021916908373ffffffffffffffffffffffffffffffffffffffff16021790555091602001919060010190610e3f565b5b509050610ea59190610ea9565b5090565b5b80821115610ec2576000816000905550600101610eaa565b5090565b6000604051905090565b600080fd5b600080fd5b6000819050919050565b610eed81610eda565b8114610ef857600080fd5b50565b600081359050610f0a81610ee4565b92915050565b600073ffffffffffffffffffffffffffffffffffffffff82169050919050565b6000610f3b82610f10565b9050919050565b610f4b81610f30565b8114610f5657600080fd5b50565b600081359050610f6881610f42565b92915050565b60008060408385031215610f8557610f84610ed0565b5b6000610f9385828601610efb565b9250506020610fa485828601610f59565b9150509250929050565b600060208284031215610fc457610fc3610ed0565b5b6000610fd284828501610efb565b91505092915050565b600081519050919050565b600082825260208201905092915050565b60005b83811015611015578082015181840152602081019050610ffa565b60008484015250505050565b6000601f19601f8301169050919050565b600061103d82610fdb565b6110478185610fe6565b9350611057818560208601610ff7565b61106081611021565b840191505092915050565b600060208201905081810360008301526110858184611032565b905092915050565b600080fd5b600080fd5b7f4e487b7100000000000000000000000000000000000000000000000000000000600052604160045260246000fd5b6110cf82611021565b810181811067ffffffffffffffff821117156110ee576110ed611097565b5b80604052505050565b6000611101610ec6565b905061110d82826110c6565b919050565b600067ffffffffffffffff82111561112d5761112c611097565b5b61113682611021565b9050602081019050919050565b82818337600083830152505050565b600061116561116084611112565b6110f7565b90508281526020810184848401111561118157611180611092565b5b61118c848285611143565b509392505050565b600082601f8301126111a9576111a861108d565b5b81356111b9848260208601611152565b91505092915050565b600080604083850312156111d9576111d8610ed0565b5b600083013567ffffffffffffffff8111156111f7576111f6610ed5565b5b61120385828601611194565b925050602083013567ffffffffffffffff81111561122457611223610ed5565b5b61123085828601611194565b9150509250929050565b60008115159050919050565b61124f8161123a565b82525050565b600060208201905061126a6000830184611246565b92915050565b600081519050919050565b600082825260208201905092915050565b6000819050602082019050919050565b6112a581610f30565b82525050565b60006112b7838361129c565b60208301905092915050565b6000602082019050919050565b60006112db82611270565b6112e5818561127b565b93506112f08361128c565b8060005b8381101561132157815161130888826112ab565b9750611313836112c3565b9250506001810190506112f4565b5085935050505092915050565b6000602082019050818103600083015261134881846112d0565b905092915050565b600081519050919050565b600082825260208201905092915050565b6000819050602082019050919050565b61138581610eda565b82525050565b600082825260208201905092915050565b60006113a782610fdb565b6113b1818561138b565b93506113c1818560208601610ff7565b6113ca81611021565b840191505092915050565b600082825260208201905092915050565b60006113f182611270565b6113fb81856113d5565b93506114068361128c565b8060005b8381101561143757815161141e88826112ab565b9750611429836112c3565b92505060018101905061140a565b5085935050505092915050565b600060a08301600083015161145c600086018261137c565b5060208301518482036020860152611474828261139c565b9150506040830151848203604086015261148e828261139c565b91505060608301516114a3606086018261129c565b50608083015184820360808601526114bb82826113e6565b9150508091505092915050565b60006114d48383611444565b905092915050565b6000602082019050919050565b60006114f482611350565b6114fe818561135b565b9350836020820285016115108561136c565b8060005b8581101561154c578484038952815161152d85826114c8565b9450611538836114dc565b925060208a01995050600181019050611514565b50829750879550505050505092915050565b6000602082019050818103600083015261157881846114e9565b905092915050565b7f4f6e6c7920746865206f776e65722063616e206772616e74207065726d69737360008201527f696f6e2e00000000000000000000000000000000000000000000000000000000602082015250565b60006115dc602483610fe6565b91506115e782611580565b604082019050919050565b6000602082019050818103600083015261160b816115cf565b9050919050565b7f5573657220616c726561647920686173207065726d697373696f6e2e00000000600082015250565b6000611648601c83610fe6565b915061165382611612565b602082019050919050565b600060208201905081810360008301526116778161163b565b9050919050565b7f4f6e6c7920746865206f776e65722063616e207265766f6b65207065726d697360008201527f73696f6e2e000000000000000000000000000000000000000000000000000000602082015250565b60006116da602583610fe6565b91506116e58261167e565b604082019050919050565b60006020820190508181036000830152611709816116cd565b9050919050565b7f5573657220646f6573206e6f742068617665207065726d697373696f6e2e0000600082015250565b6000611746601e83610fe6565b915061175182611710565b602082019050919050565b6000602082019050818103600083015261177581611739565b9050919050565b7f4e487b7100000000000000000000000000000000000000000000000000000000600052603260045260246000fd5b7f4e487b7100000000000000000000000000000000000000000000000000000000600052601160045260246000fd5b60006117e582610eda565b91506117f083610eda565b9250828203905081811115611808576118076117ab565b5b92915050565b7f4e487b7100000000000000000000000000000000000000000000000000000000600052603160045260246000fd5b600061184882610eda565b91507fffffffffffffffffffffffffffffffffffffffffffffffffffffffffffffffff820361187a576118796117ab565b5b600182019050919050565b7f446f63756d656e74206e6f7420666f756e64207769746820746865206769766560008201527f6e20756e6971756549642e000000000000000000000000000000000000000000602082015250565b60006118e1602b83610fe6565b91506118ec82611885565b604082019050919050565b60006020820190508181036000830152611910816118d4565b9050919050565b7f4e487b7100000000000000000000000000000000000000000000000000000000600052602260045260246000fd5b6000600282049050600182168061195e57607f821691505b60208210810361197157611970611917565b5b50919050565b60008190508160005260206000209050919050565b60006020601f8301049050919050565b600082821b905092915050565b6000600883026119d97fffffffffffffffffffffffffffffffffffffffffffffffffffffffffffffffff8261199c565b6119e3868361199c565b95508019841693508086168417925050509392505050565b6000819050919050565b6000611a20611a1b611a1684610eda565b6119fb565b610eda565b9050919050565b6000819050919050565b611a3a83611a05565b611a4e611a4682611a27565b8484546119a9565b825550505050565b600090565b611a63611a56565b611a6e818484611a31565b505050565b5b81811015611a9257611a87600082611a5b565b600181019050611a74565b5050565b601f821115611ad757611aa881611977565b611ab18461198c565b81016020851015611ac0578190505b611ad4611acc8561198c565b830182611a73565b50505b505050565b600082821c905092915050565b6000611afa60001984600802611adc565b1980831691505092915050565b6000611b138383611ae9565b9150826002028217905092915050565b611b2c82610fdb565b67ffffffffffffffff811115611b4557611b44611097565b5b611b4f8254611946565b611b5a828285611a96565b600060209050601f831160018114611b8d5760008415611b7b578287015190505b611b858582611b07565b865550611bed565b601f198416611b9b86611977565b60005b82811015611bc357848901518255600182019150602085019450602081019050611b9e565b86831015611be05784890151611bdc601f891682611ae9565b8355505b6001600288020188555050505b505050505050565b611bfe81610eda565b82525050565b6000606082019050611c196000830186611bf5565b8181036020830152611c2b8185611032565b90508181036040830152611c3f8184611032565b905094935050505056fea2646970667358221220d8c12147f2a447ebf380dfaba8abdfae27abda282dcf1719ed0dd403228e666c64736f6c63430008130033",
  "immutableReferences": {},
  "source": "// SPDX-License-Identifier: MIT\npragma solidity ^0.8.0;\n\ncontract DocumentStorage {\n    \n    // Struct to store document details\n    struct Document {\n        uint256 uniqueId;           // Auto-incremented Unique ID for the document\n        string name;                // Document name\n        string cid;                 // CID from IPFS\n        address uploader;           // Address of the uploader\n        address[] permissions;      // Array of addresses with permission\n    }\n\n    // Mapping to store documents by uploader\n    mapping(address => Document[]) private userDocuments;\n    \n    // Mapping to store documents by unique ID\n    mapping(uint256 => Document) private documentsById;\n\n    // Variable to keep track of the last uniqueId assigned\n    uint256 private currentId;\n\n    // Event to log when a document is uploaded\n    event DocumentUploaded(address indexed uploader, uint256 uniqueId, string name, string cid);\n\n    // Constructor to initialize the uniqueId starting point\n    constructor() {\n        currentId = 1; // Initialize ID from 1\n    }\n\n    // Function to upload a document\n    function uploadDocument(string memory _name, string memory _cid) public {\n        // Initialize an empty permissions array with uploader's address\n        address[] memory permissions = new address[](1); // Create a dynamic array with 1 element\n        permissions[0] = msg.sender;  // Add the uploader (msg.sender) to the array\n\n        // Create the document with auto-incrementing uniqueId and initialized permissions\n        Document memory newDocument = Document({\n            uniqueId: currentId,\n            name: _name,\n            cid: _cid,\n            uploader: msg.sender,\n            permissions: permissions  // Set the permissions array\n        });\n\n        // Add the document to the user's list\n        userDocuments[msg.sender].push(newDocument);\n        // Store the document in the global mapping for quick access\n        documentsById[currentId] = newDocument;\n\n        // Emit event\n        emit DocumentUploaded(msg.sender, currentId, _name, _cid);\n\n        // Increment the uniqueId for the next document\n        currentId++;\n    }\n\n    // Function to retrieve all documents uploaded by the caller\n    function getDocumentsByUser() public view returns (Document[] memory) {\n        return userDocuments[msg.sender];\n    }\n\n    // Function to retrieve the CID based on the unique ID\n    function getCidByUniqueId(uint256 _uniqueId) public view returns (string memory) {\n        Document storage doc = documentsById[_uniqueId];\n        \n        // Check if the document exists\n        require(doc.uniqueId != 0, \"Document not found with the given uniqueId.\");\n        return doc.cid;\n    }\n\n    // Function to check if a user has permission to access a document\n    function hasPermission(uint256 _uniqueId, address _user) public view returns (bool) {\n        Document storage doc = documentsById[_uniqueId];\n\n        // Check if the document exists\n        require(doc.uniqueId != 0, \"Document not found with the given uniqueId.\");\n        \n        // Check if the user exists in the permissions array\n        for (uint256 j = 0; j < doc.permissions.length; j++) {\n            if (doc.permissions[j] == _user) {\n                return true;\n            }\n        }\n        return false;\n    }\n\n    // Function to grant permission to another user\n    function grantPermission(uint256 _uniqueId, address _user) public {\n        Document storage doc = documentsById[_uniqueId];\n\n        require(doc.uploader == msg.sender, \"Only the owner can grant permission.\");\n        require(!hasPermission(_uniqueId, _user), \"User already has permission.\");\n        \n        // Add the new user to permissions\n        doc.permissions.push(_user); \n    }\n\n    // Function to revoke permission from another user\n    function revokePermission(uint256 _uniqueId, address _user) public {\n        Document storage doc = documentsById[_uniqueId];\n\n        require(doc.uploader == msg.sender, \"Only the owner can revoke permission.\");\n        require(hasPermission(_uniqueId, _user), \"User does not have permission.\");\n        \n        // Find and remove the user's permission\n        for (uint256 j = 0; j < doc.permissions.length; j++) {\n            if (doc.permissions[j] == _user) {\n                // Replace the user being removed with the last element\n                doc.permissions[j] = doc.permissions[doc.permissions.length - 1]; \n                doc.permissions.pop(); // Remove the last element\n                return;\n            }\n        }\n    }\n\n    // Function to get the list of users who have permission to access a document\n    function getPermissions(uint256 _uniqueId) public view returns (address[] memory) {\n        Document storage doc = documentsById[_uniqueId];\n\n        require(doc.uniqueId != 0, \"Document not found with the given uniqueId.\");\n        \n        return doc.permissions;\n    }\n}\n",
  "sourcePath": "/home/dinesh/Desktop/Prototype-2/contracts/Pii-2.sol",
  "compiler": {
    "name": "solc",
    "version": "0.8.19+commit.7dd6d404.Emscripten.clang"
  },
  "schemaVersion": "3.4.16",
  "updatedAt": "2024-10-15T20:05:36.277Z",
  "networkType": "ethereum",
  "devdoc": {
    "kind": "dev",
    "methods": {},
    "version": 1
  },
  "userdoc": {
    "kind": "user",
    "methods": {},
    "version": 1
  }
}