{
  "contractName": "Pii",
  "abi": [
    {
      "inputs": [
        {
          "internalType": "string",
          "name": "name",
          "type": "string"
        },
        {
          "internalType": "string",
          "name": "cid",
          "type": "string"
        }
      ],
      "name": "insertDocument",
      "outputs": [],
      "stateMutability": "nonpayable",
      "type": "function"
    },
    {
      "inputs": [],
      "name": "getDocuments",
      "outputs": [
        {
          "components": [
            {
              "internalType": "string",
              "name": "name",
              "type": "string"
            },
            {
              "internalType": "string",
              "name": "cid",
              "type": "string"
            }
          ],
          "internalType": "struct Pii.Document[]",
          "name": "",
          "type": "tuple[]"
        }
      ],
      "stateMutability": "view",
      "type": "function",
      "constant": true
    },
    {
      "inputs": [
        {
          "internalType": "address",
          "name": "user",
          "type": "address"
        },
        {
          "internalType": "string",
          "name": "name",
          "type": "string"
        }
      ],
      "name": "getDocumentByName",
      "outputs": [
        {
          "internalType": "string",
          "name": "",
          "type": "string"
        }
      ],
      "stateMutability": "view",
      "type": "function",
      "constant": true
    }
  ],
  "bytecode": "0x608060405234801561001057600080fd5b50610e64806100206000396000f3fe608060405234801561001057600080fd5b50600436106100415760003560e01c8063ead6e6df14610046578063ef2d870014610076578063fbf3c40a14610094575b600080fd5b610060600480360381019061005b9190610766565b6100b0565b60405161006d9190610841565b60405180910390f35b61007e610341565b60405161008b91906109b3565b60405180910390f35b6100ae60048036038101906100a991906109d5565b610500565b005b606060008060008573ffffffffffffffffffffffffffffffffffffffff1673ffffffffffffffffffffffffffffffffffffffff168152602001908152602001600020805480602002602001604051908101604052809291908181526020016000905b82821015610268578382906000526020600020906002020160405180604001604052908160008201805461014590610a7c565b80601f016020809104026020016040519081016040528092919081815260200182805461017190610a7c565b80156101be5780601f10610193576101008083540402835291602001916101be565b820191906000526020600020905b8154815290600101906020018083116101a157829003601f168201915b505050505081526020016001820180546101d790610a7c565b80601f016020809104026020016040519081016040528092919081815260200182805461020390610a7c565b80156102505780601f1061022557610100808354040283529160200191610250565b820191906000526020600020905b81548152906001019060200180831161023357829003601f168201915b50505050508152505081526020019060010190610112565b50505050905060005b8151811015610326578360405160200161028b9190610ae9565b604051602081830303815290604052805190602001208282815181106102b4576102b3610b00565b5b6020026020010151600001516040516020016102d09190610ae9565b6040516020818303038152906040528051906020012003610313578181815181106102fe576102fd610b00565b5b6020026020010151602001519250505061033b565b808061031e90610b68565b915050610271565b50604051806020016040528060008152509150505b92915050565b60606000803373ffffffffffffffffffffffffffffffffffffffff1673ffffffffffffffffffffffffffffffffffffffff168152602001908152602001600020805480602002602001604051908101604052809291908181526020016000905b828210156104f757838290600052602060002090600202016040518060400160405290816000820180546103d490610a7c565b80601f016020809104026020016040519081016040528092919081815260200182805461040090610a7c565b801561044d5780601f106104225761010080835404028352916020019161044d565b820191906000526020600020905b81548152906001019060200180831161043057829003601f168201915b5050505050815260200160018201805461046690610a7c565b80601f016020809104026020016040519081016040528092919081815260200182805461049290610a7c565b80156104df5780601f106104b4576101008083540402835291602001916104df565b820191906000526020600020905b8154815290600101906020018083116104c257829003601f168201915b505050505081525050815260200190600101906103a1565b50505050905090565b6000803373ffffffffffffffffffffffffffffffffffffffff1673ffffffffffffffffffffffffffffffffffffffff168152602001908152602001600020604051806040016040528084815260200183815250908060018154018082558091505060019003906000526020600020906002020160009091909190915060008201518160000190816105919190610d5c565b5060208201518160010190816105a79190610d5c565b5050505050565b6000604051905090565b600080fd5b600080fd5b600073ffffffffffffffffffffffffffffffffffffffff82169050919050565b60006105ed826105c2565b9050919050565b6105fd816105e2565b811461060857600080fd5b50565b60008135905061061a816105f4565b92915050565b600080fd5b600080fd5b6000601f19601f8301169050919050565b7f4e487b7100000000000000000000000000000000000000000000000000000000600052604160045260246000fd5b6106738261062a565b810181811067ffffffffffffffff821117156106925761069161063b565b5b80604052505050565b60006106a56105ae565b90506106b1828261066a565b919050565b600067ffffffffffffffff8211156106d1576106d061063b565b5b6106da8261062a565b9050602081019050919050565b82818337600083830152505050565b6000610709610704846106b6565b61069b565b90508281526020810184848401111561072557610724610625565b5b6107308482856106e7565b509392505050565b600082601f83011261074d5761074c610620565b5b813561075d8482602086016106f6565b91505092915050565b6000806040838503121561077d5761077c6105b8565b5b600061078b8582860161060b565b925050602083013567ffffffffffffffff8111156107ac576107ab6105bd565b5b6107b885828601610738565b9150509250929050565b600081519050919050565b600082825260208201905092915050565b60005b838110156107fc5780820151818401526020810190506107e1565b60008484015250505050565b6000610813826107c2565b61081d81856107cd565b935061082d8185602086016107de565b6108368161062a565b840191505092915050565b6000602082019050818103600083015261085b8184610808565b905092915050565b600081519050919050565b600082825260208201905092915050565b6000819050602082019050919050565b600082825260208201905092915050565b60006108ab826107c2565b6108b5818561088f565b93506108c58185602086016107de565b6108ce8161062a565b840191505092915050565b600060408301600083015184820360008601526108f682826108a0565b9150506020830151848203602086015261091082826108a0565b9150508091505092915050565b600061092983836108d9565b905092915050565b6000602082019050919050565b600061094982610863565b610953818561086e565b9350836020820285016109658561087f565b8060005b858110156109a15784840389528151610982858261091d565b945061098d83610931565b925060208a01995050600181019050610969565b50829750879550505050505092915050565b600060208201905081810360008301526109cd818461093e565b905092915050565b600080604083850312156109ec576109eb6105b8565b5b600083013567ffffffffffffffff811115610a0a57610a096105bd565b5b610a1685828601610738565b925050602083013567ffffffffffffffff811115610a3757610a366105bd565b5b610a4385828601610738565b9150509250929050565b7f4e487b7100000000000000000000000000000000000000000000000000000000600052602260045260246000fd5b60006002820490506001821680610a9457607f821691505b602082108103610aa757610aa6610a4d565b5b50919050565b600081905092915050565b6000610ac3826107c2565b610acd8185610aad565b9350610add8185602086016107de565b80840191505092915050565b6000610af58284610ab8565b915081905092915050565b7f4e487b7100000000000000000000000000000000000000000000000000000000600052603260045260246000fd5b7f4e487b7100000000000000000000000000000000000000000000000000000000600052601160045260246000fd5b6000819050919050565b6000610b7382610b5e565b91507fffffffffffffffffffffffffffffffffffffffffffffffffffffffffffffffff8203610ba557610ba4610b2f565b5b600182019050919050565b60008190508160005260206000209050919050565b60006020601f8301049050919050565b600082821b905092915050565b600060088302610c127fffffffffffffffffffffffffffffffffffffffffffffffffffffffffffffffff82610bd5565b610c1c8683610bd5565b95508019841693508086168417925050509392505050565b6000819050919050565b6000610c59610c54610c4f84610b5e565b610c34565b610b5e565b9050919050565b6000819050919050565b610c7383610c3e565b610c87610c7f82610c60565b848454610be2565b825550505050565b600090565b610c9c610c8f565b610ca7818484610c6a565b505050565b5b81811015610ccb57610cc0600082610c94565b600181019050610cad565b5050565b601f821115610d1057610ce181610bb0565b610cea84610bc5565b81016020851015610cf9578190505b610d0d610d0585610bc5565b830182610cac565b50505b505050565b600082821c905092915050565b6000610d3360001984600802610d15565b1980831691505092915050565b6000610d4c8383610d22565b9150826002028217905092915050565b610d65826107c2565b67ffffffffffffffff811115610d7e57610d7d61063b565b5b610d888254610a7c565b610d93828285610ccf565b600060209050601f831160018114610dc65760008415610db4578287015190505b610dbe8582610d40565b865550610e26565b601f198416610dd486610bb0565b60005b82811015610dfc57848901518255600182019150602085019450602081019050610dd7565b86831015610e195784890151610e15601f891682610d22565b8355505b6001600288020188555050505b50505050505056fea264697066735822122013f6e712aac012bc4547e254cbed7fa297736d1afb5be5a49daa4ee7294c3f4264736f6c63430008130033",
  "immutableReferences": {},
  "source": "// SPDX-License-Identifier: MIT\npragma solidity 0.8.19;\n\ncontract Pii {\n    struct Document {\n        string name;\n        string cid;\n    }\n\n    mapping(address => Document[]) private documents;\n\n    function insertDocument(string memory name, string memory cid) public {\n        documents[msg.sender].push(Document(name, cid));\n    }\n\n    function getDocuments() public view returns (Document[] memory) {\n        return documents[msg.sender];\n    }\n\n    function getDocumentByName(address user, string memory name) public view returns (string memory) {\n        Document[] memory userDocuments = documents[user];\n        \n        for (uint i = 0; i < userDocuments.length; i++) {\n            if (keccak256(abi.encodePacked(userDocuments[i].name)) == keccak256(abi.encodePacked(name))) {\n                return userDocuments[i].cid;\n            }\n        }\n        return \"\";\n    }\n}\n",
  "sourcePath": "/home/dinesh/Desktop/Prototype-2/contracts/Pii.sol",
  "compiler": {
    "name": "solc",
    "version": "0.8.19+commit.7dd6d404.Emscripten.clang"
  },
  "schemaVersion": "3.4.16",
  "updatedAt": "2024-10-15T20:05:36.058Z",
  "networkType": "ethereum",
  "devdoc": {
    "kind": "dev",
    "methods": {},
    "version": 1
  },
  "userdoc": {
    "kind": "user",
    "methods": {},
    "version": 1
  }
}